:020000040800F2
:100000008809002089010008F5270008ED2700086D
:10001000F127000845020008E12800080000000060
:10002000000000000000000000000000FD270008A4
:100030006102000800000000F927000801280008FC
:10004000A3010008A3010008A3010008A301000800
:10005000A3010008A3010008A3010008A3010008F0
:10006000A3010008A3010008A3010008A3010008E0
:10007000A3010008A3010008A3010008A3010008D0
:100080004902000855020008A3010008A301000866
:10009000A3010008A3010008A3010008A3010008B0
:1000A000A3010008A3010008A3010008A3010008A0
:1000B000A3010008A301000809280008A301000803
:1000C000A3010008A3010008A3010008A301000880
:1000D000A3010008A3010008A3010008A301000870
:1000E000A3010008A3010008A301000800F002F822
:1000F00000F03AF80AA090E8000C82448344AAF188
:100100000107DA4501D100F02FF8AFF2090EBAE885
:100110000F0013F0010F18BFFB1A43F0010318473B
:10012000043C0000243C0000103A24BF78C878C189
:10013000FAD8520724BF30C830C144BF04680C60ED
:10014000704700000023002400250026103A28BF35
:1001500078C1FBD8520728BF30C148BF0B60704739
:100160001FB51FBD10B510BD00F031F81146FFF7E7
:10017000F7FF02F0B7FB00F04FF803B4FFF7F2FF10
:1001800003BC00F057F800000948804709480047C1
:10019000FEE7FEE7FEE7FEE7FEE7FEE7FEE7FEE737
:1001A000FEE7FEE704480549054A064B7047000094
:1001B00005280008ED0000088803002088090020B9
:1001C00088050020880500207047704770477546F5
:1001D00000F02CF8AE4605006946534620F00700B3
:1001E000854618B020B5FFF7DDFFBDE820404FF091
:1001F00000064FF000074FF000084FF0000BAC4630
:10020000ACE8C009ACE8C009ACE8C009ACE8C0097A
:1002100021F007018D46704710B50446AFF300800A
:100220002046BDE81040FFF7A8BF00000048704717
:100230005000002001491820ABBEFEE72600020056
:1002400070470000FEE7000040F29810C2F2000084
:1002500000F00EB840F2DC10C2F2000000F008B866
:1002600070470000EFF3108072B600BFFEE7000099
:1002700010B5D0E90FCE0168DCF800300A6823FA27
:100280000EF35C072AD512F0040427D00A68920600
:1002900003D40A6822F004020A602F22C4F2020288
:1002A000914240F20402C4F2020259DD3023C4F24A
:1002B0000203994270D04423C4F20203994271D0E0
:1002C0005823C4F20203994278D14FF4802313607B
:1002D000C16A002940F097806EE000BF9C0727D5D7
:1002E00012F0020424D00A68920606D40A6822F0AA
:1002F0000A020A60012280F821202F22C4F20202A1
:10030000914240F20402C4F2020239DD3023C4F209
:10031000020399425ED04423C4F2020399425DD0A5
:100320005823C4F2020399425ED14FF4003363E0D4
:100330001B0741D512F0080208BF10BD0A6822F061
:100340000E020A60012101FA0EF2CCF8042081634A
:10035000016B4FF480720029028454D12CE000BF5D
:100360000823C4F20203994222D01C23C4F20203E0
:10037000994223D140231360C16A002943D11BE075
:100380000823C4F2020399422CD01C23C4F20203B6
:10039000994229D120232FE04FF480631360C16A72
:1003A00089BB09E04FF480431360C16A59BB03E085
:1003B00004231360C16A31BB10BD00BF02F16804A1
:1003C0004FF08063A14208BF4FF480031360C16AFD
:1003D000C9B9F1E74FF400730EE000BF4FF40053CA
:1003E0000AE000BF022307E002F168044FF0007347
:1003F000A14208BF4FF400131360816A0022002954
:1004000080F82020D8D0BDE810400847002804BF5D
:10041000012070472DE9F04101684FF6F872CBF6E4
:10042000FD724CF6CD430A44CCF6CC43A2FB032329
:100430006FF0030707EA93030027C4F2020700F1F5
:10044000040E00F11008C0E90F739EE8045098E80C
:1004500070010B6843F6F077BB431A4342EA0C0283
:1004600042EA0E0222432A43324342EA08020A6069
:1004700000214FF4807281630284BDE8F041084698
:1004800070470000F0B590F820C0BCF1010F32D0E9
:1004900090F821C04FF0010EBCF1010F80F820E070
:1004A00026D14FF0020C80F821C04FF0000CC0F8AC
:1004B00038C0D0E900C4C56AC66BDCF80070102CE7
:1004C00027F00107CCF80070006C0EFA00F07060A5
:1004D0000846CCF8043004BF10460A46CCF80800A1
:1004E000CCF80C20DCF8000045B140F00E000DE027
:1004F000002180F820100220F0BD00BF20F0040091
:10050000CCF80000DCF8000040F00A00CCF8000055
:10051000DCF8000040F00100CCF800000020F0BD45
:10052000B0B5044600F024F9054640F24000C2F29E
:1005300000000078611C18BF044400BF00F018F9E7
:10054000401BA042FAD3B0BD2DE9F04F82B00E6837
:10055000002E00F0038140F20C4C41F200424FF6B5
:10056000FF7EC4F2010CC4F201020427002401231F
:10057000C1F2100E4FF0000A4FF00009904208BF80
:100580000327009745E000BF012704F00C030F226A
:100590009A402BEA020207FA03F34FEA9A051A433C
:1005A00046F82520D1F804B040F20045C4F2010518
:1005B0005FEACB322A6854BF22EA080242EA080204
:1005C0002A606A685FEA8B3354BF22EA080242EA73
:1005D00008026A605FEACB23AA6854BF22EA0802D5
:1005E00042EA08025FEA8B23AA60DCF800204FF0A1
:1005F000010354BF22EA080242EA0802CCF80020B4
:100600000E680AF1010A36FA0AF204F1040400F055
:10061000A58003FA0AF816EA080FF1D04E6876456D
:1006200012DC122E56D8DFE806F0350B4549555539
:1006300055555555555555555555554D510000BFB6
:10064000D1F80C9046E000BF4FF6FF72C1F22102D4
:1006500096420FDC0022C1F2110296421AD000220B
:10066000C1F21202964215D00022C1F22102964236
:1006700010D02FE00022C1F2220296420AD00022BE
:10068000C1F23102964205D00022C1F232029642F6
:1006900020D100BF8A684AB1012A14BFC0F8148073
:1006A000C0F810804FF0080914E000BF4FF00409B3
:1006B00010E000BFCA6802F108090BE04FF0000922
:1006C00008E000BFCA6802F1040903E0CA6802F149
:1006D0000C0900BF22460646BAF1080F24BF203A93
:1006E000043637680F25954027EA050509FA02F216
:1006F0002A433260CA79D2067FF582AF41F21803ED
:10070000C4F202031A6842F001021A601A6802F089
:1007100001020192019A40F20042C4F20102A2F5E4
:100720007E762AF0030256F802B040F60002C4F2C8
:100730000102904210D040F60042C4F20102904201
:100740003FF422AF41F20002C4F20102009F904246
:1007500008BF022719E700BF002716E702B0BDE86F
:10076000F08F0000002A08BF0904016170470000F3
:1007700040F28430C2F200000068704740F240004E
:1007800040F28431C2F20000C2F2000100780A682F
:10079000104408607047000080B542F20000C4F2C7
:1007A0000200016841F010010160032000F08EF8A2
:1007B0000F2000F005F800F027F8002080BD0000B1
:1007C00070B540F24006C2F2000640F248013278AD
:1007D000C2F200014FF47A730968B3FBF2F20446E7
:1007E000B1FBF2F1084600F063FB0F2C4FF001055E
:1007F00008D838B94FF0FF3021460022002500F01C
:1008000039F87460284670BD82B041F21800C4F215
:1008100002000168022241F001010160016801F05B
:10082000010101910199416841F0805141604068A6
:1008300000F08050009000980420C4F2010001688C
:1008400062F31A61016002B070470000002848BFDF
:100850007047C1B200F01F00012202FA00F04EF210
:100860000012CEF2000242EAD10121F00301086039
:100870007047000010B54EF60C5CCEF2000CDCF8B0
:100880000030C3F3022E8EF00704042C28BF04248A
:10089000BEF103034FF0FF3E0EFA04F438BF00230D
:1008A000A14399400EFA03F39A43114300F00F025B
:1008B00000F160430901043A03F5644362440028EF
:1008C00048BF02F10C03197010BD00004EF60C5128
:1008D000CEF200010A684FF6FF031A4060F30A22C5
:1008E00042F0806040F0FD70086070472DE9F043F1
:1008F00081B0002800F0858042F20008C4F20208AE
:100900000446D8F800000D4600F0070088420CD2DB
:10091000D8F8000020F007002843C8F80000D8F8F5
:10092000000000F00700A8426BD1206841F20409E2
:100930008107C4F2020917D5410705D5D9F800107F
:1009400041F4E061C9F80010010705D5D9F800109D
:1009500041F46051C9F80010D9F80010A26821F0E4
:10096000F0011143C9F80010C00741D1D8F80000C8
:1009700000F00700A8420CD9D8F8000020F00700CA
:100980002843C8F80000D8F8000000F00700A8428B
:1009900037D12068410707D5D9F80010E26821F463
:1009A000E0611143C9F80010000708D5D9F800002C
:1009B000216920F4605040EAC100C9F80000D9F86C
:1009C000002002F00C00082841F20020C0F27A005A
:1009D00050D143F61453C2F38341C0F60003595C6F
:1009E000D2033BD440F60010C0F23D00484341E042
:1009F000606802280AD001282AD159F8041C89030A
:100A000008D4012001B0BDE8F08300BF59F8041CF0
:100A10008901F6D5D9F8001021F003010843C9F87F
:100A20000000FFF7A5FE064641F28837D9F800001E
:100A3000616800F00C00B0EB810F97D0FFF798FED3
:100A4000801BB842F2D9032001B0BDE8F08300BF9B
:100A500059F8041C8907D4D5DCE700BFD9F8002079
:100A600043F6FA43C2F34042C0F600039A5C48439F
:100A7000B0FBF2F0D9F8001043F6FC42C1F30311C9
:100A8000C0F60002515C40F2480220FA01F140F247
:100A90004400C2F200000068C2F200021160FFF7D9
:100AA0008FFE002001B0BDE8F083000040F2480056
:100AB00041F20401C2F20000C4F2020100680968B8
:100AC00043F60C52C1F30221C0F60002515CC8404B
:100AD0007047000040F2480041F20401C2F20000F9
:100AE000C4F202010068096843F60C52C1F3C22146
:100AF000C0F60002515CC840704700002DE9F0418B
:100B000082B0002868D00446007841F20006C00791
:100B1000C4F2020625D0706800F00C0004281BD037
:100B2000706800F00C00082802D17068C00313D46C
:100B30006068002800F06881B0F5A02F00F07C818B
:100B4000B0F5803F00F07C81306820F48030306068
:100B5000306820F4802076E13068800301D5606839
:100B6000D0B32078800718D5706810F00C0F07D02C
:100B7000706800F00C0008286ED17068C0036BD458
:100B80003068800702D52069012825D13068616965
:100B900020F0F80040EAC1003060207800071FD440
:100BA0002078400732D4E56995B1706800F00C00F8
:100BB000082840F08F80012D0ED07068216A00F463
:100BC00080328A4208D1616A00F47010884203D1F1
:100BD000002002B0BDE8F081012002B0BDE8F08144
:100BE000A069002862D00020C4F242200121C0F890
:100BF0008014FFF7BDFD0546706A800700F18C8008
:100C0000FFF7B6FD401B0228F6D92AE1F06910F083
:100C1000805808D1F06940F08050F061F06900F030
:100C200080500090009847F20007C4F2000738682F
:100C3000C00529D4386840F480703860FFF798FD0B
:100C4000054600BF3868C0051ED4FFF791FD401B64
:100C50006428F7D905E100BF2069002840F20000B0
:100C6000C4F2422000F0828001210160FFF780FD84
:100C7000054600BF306880073FF588AFFFF778FD75
:100C8000401B0228F6D9ECE0E068002800F08080E4
:100C9000052800F09780012800F09880306A20F045
:100CA00001003062306A20F0040092E00020C4F2BB
:100CB00042200021C0F88014FFF75AFD054600BF0E
:100CC000706A80077FF56CAFFFF752FD401B02286A
:100CD000F6D9C6E00027C4F2422700203866FFF7A5
:100CE00047FD022D05460BD13068800140F1BE80E2
:100CF000FFF73EFD401B02284FF00300F4D968E7E0
:100D0000306880017FF564AFFFF732FD401B022899
:100D10004FF00300F4D95CE740F24800C2F2000053
:100D2000006844F6D351C1F26201A0FB0101480AF8
:100D3000019000BF00BF0198411E002801913FF4BF
:100D40002FAF00BF0198411E002801913FF428AF4A
:100D500000BF0198411E002801913FF421AF00BF60
:100D60000198411E00280191E4D119E7002101609A
:100D7000FFF7FEFC054600BF306880077FF50DAF2A
:100D8000FFF7F6FC401B02284FF00300F4D920E7E0
:100D9000306A20F001003062306A20F004003062D6
:100DA000FFF7E6FC054641F2883700BF306A80074E
:100DB00020D5FFF7DDFC401BB8424FF00300F5D90A
:100DC00007E700BF306A40F004003062306A40F04C
:100DD00001003062FFF7CCFC054641F2883700BFC6
:100DE000306A800706D4FFF7C3FC401BB842F7D92E
:100DF00037E000BFB8F1000F7FF4D5AEF06920F006
:100E00008050F061CFE600BF306820F48030306061
:100E1000306820F480203060FFF7AAFC054600BF50
:100E2000306880037FF59DAEFFF7A2FC401B64286D
:100E30004FF00300F4D9CCE6306840F480203060F5
:100E4000306840F480303060FFF792FC054600BF08
:100E5000306880033FF585AEFFF78AFC401B6428AD
:100E6000F6D9032002B0BDE8F08100BF206AB0F5DA
:100E7000803F05D17168A26821F40031114371608F
:100E80007168626A21F47411114308437060012093
:100E90003866FFF76DFC0446306880013FF598AE78
:100EA000FFF766FC001B02284FF00300F4D990E620
:100EB000411E0020B0EB116F1CBF012070474EF2A5
:100EC0001002CEF2000251604EF62351CEF2000124
:100ED000F0230B700721906011607047704700008D
:100EE00070470000B0B590F83C20012A04BF0220F2
:100EF000B0BD01F108053CCDD1E900CE23F47C530F
:100F000022F470521A432EF4F0431A432CF4E043B7
:100F10001A4324F4C0431A432A43C96922F4804285
:100F2000036811435964002180F83C100846B0BDA5
:100F300010B590F83C20012A4FF0020233D080F81F
:100F40003D200268D2F804E0D2F808C00C682EF008
:100F50007003234340F2FF74C4F20004A2425360C2
:100F60000ADCB2F1804F13D040F20043C4F2000318
:100F70009A420DD011E000BF42F60043C4F20103D3
:100F80009A4205D040F60003C4F200039A4204D10D
:100F900049682CF08003194391600121002280F8F8
:100FA0003D1080F83C20104610BD0000002804BF12
:100FB0000120704710B5044690F83D0028B9002084
:100FC00084F83C00204600F067F8022084F83D00D9
:100FD000206840F2FF730268C4F2000342F6004C3E
:100FE0009842C4F2010C15DCB0F1804F1AD040F2E7
:100FF0000041C4F20001884214D0984218DCB0F1DC
:10100000804F1DD040F20041C4F20001884217D049
:101010001AE000BF604505D040F60001C4F20001AF
:101020008842EAD1A16822F070020A439842E6DDC4
:10103000604505D040F60001C4F20001884203D1AA
:10104000216922F440720A43A36922F08001D4F896
:1010500004E0E268194360450160C262C0F828E01C
:1010600002D16169CCF8301001214161002084F87F
:10107000461084F83E1084F83F1084F8401084F83D
:10108000411084F8421084F8431084F8441084F826
:10109000451084F83D1010BD80B582B0006840F660
:1010A0000001C4F20001884214D042F60041C4F2AB
:1010B000010188420CD141F21800C4F2020001681B
:1010C00041F400610160006800F400600190019843
:1010D00002B080BD41F21800C4F202004168002253
:1010E00041F0040141604068002100F004000090DC
:1010F00000981E20FFF7BEFB1E2002B0BDE8804016
:10110000FFF7A4BB90F83D1001291CBF01207047D8
:10111000022180F83D10006840F2FF72C168C4F2FD
:101120000002904241F00101C16009DCB0F1804F42
:1011300012D040F20041C4F2000188420CD012E00B
:1011400042F60041C4F20101884205D040F6000198
:10115000C4F20001884206D1816801F00701062926
:1011600004BF00207047016841F0010101600020C8
:101170007047000080B590F83C20012A4FF0020231
:1011800000F0BF8080F83D20D0F800C04FF67772A5
:10119000DCF8083023EA0202CCF808200B683F2B69
:1011A0001CDD5F2B20DD602B50D0B3F5005F6DD0D0
:1011B000702B40F0A080D1E901E3C968DCF8082079
:1011C00043EA0E0322F47F4243EA01211143CCF8A3
:1011D0000810DCF8081041F077018AE01F2B29DCA9
:1011E00063B3102B2AD086E0402B63D0502B40F005
:1011F0008280D1F804E0C968DCF82030DCF82020D7
:1012000022F00102CCF82020DCF8182022F0F002B5
:1012100042EA011123F00A0242EA0E02CCF8181049
:10122000CCF82020DCF8081041F0570121F0200113
:101230005FE000BF202B01D0302B5CD1DCF8081020
:1012400021F07001194341F0070152E0D1F804E0A8
:10125000C968DCF8203023F01003CCF82030DCF82B
:101260001830DCF8202023F4704322F0A00243EA77
:10127000013142EA0E12CCF81810CCF82020DCF82C
:10128000081041F0670121F0100132E0D1E901E3DB
:10129000C968DCF8082043EA0E0322F47F4243EADF
:1012A00001211143CCF80810DCF8081041F480410A
:1012B0001FE000BFD1F804E0C968DCF82030DCF89A
:1012C000202022F00102CCF82020DCF8182022F0A7
:1012D000F00242EA011123F00A0242EA0E02CCF8BF
:1012E0001810CCF82020DCF8081041F0470121F05C
:1012F0003001CCF808100121002280F83D1080F860
:101300003C20104680BD0000002804BF012070472B
:101310002DE9F04F81B0044690F83D000D4628B904
:10132000002084F83C00204600F094F8022084F865
:101330003D00206844F20702816840F2FF73914348
:1013400081600268C4F2000342F6004C9842C4F285
:10135000010C15DCB0F1804F1AD040F20041C4F20C
:101360000001884214D0984218DCB0F1804F1DD0A3
:1013700040F20041C4F20001884217D01AE000BFD9
:10138000604505D040F60001C4F200018842EAD170
:10139000A16822F070020A439842E6DD604505D05C
:1013A00040F60001C4F20001884203D1216922F411
:1013B00040720A43A36922F08001D4F804E0E26895
:1013C000194360450160C262C0F828E002D161693A
:1013D000CCF830104FF00109C0F814908268D0F8B2
:1013E00018E0D0F820C0D5E90038D5E9027B43EAFF
:1013F000020AAB694FF6FF712EEA010E47EA03239A
:101400004FF6FC47BB43D5E907724BEA0E012E6944
:10141000194341EA072141EA061141EA02312CF061
:1014200022026B6942EA080242EA0312C0F808A0ED
:101430008161026284F8469084F83E9084F83F907F
:1014400084F8429084F8439084F83D90002001B0E5
:10145000BDE8F08F80B586B0006840F20041C4F26C
:10146000000188424FF00001CDE90411CDE90211DD
:101470001AD0B0F1804F39D141F21800C4F2020005
:10148000416841F001014160416801F001010191B1
:101490000199016841F004010160006800F0040056
:1014A00001900198032016E041F21800C4F20200F6
:1014B000416841F002014160416801F0020101917F
:1014C0000199016841F004010160006800F0040026
:1014D00001900198C02002900020CDE9030040F661
:1014E0000000C4F2010002A9FFF72EF806B080BD8B
:1014F00080B590F83E2090F83F3090F842E090F8A8
:1015000043C004290AD0B9B9012A4FF0010208BF2B
:10151000BEF1010F34D0104680BD00BF012B4FF04B
:10152000010208BFBCF1010FF5D1022180F83F1084
:1015300080F8431000681EE0012A4FF0010208BF46
:10154000012BE8D1BEF1010FE5D1BCF1010FE2D1D1
:10155000022280F83E2080F83F2080F8422080F868
:10156000432091B10068016A21F001010162016A22
:1015700041F00101016210216FF0100209E000BF8B
:10158000022180F83E1080F84210006801216FF0BF
:101590000102036A1A400262026A11430162016891
:1015A000002241F001010160104680BD704700003B
:1015B00010B5016804460869800744BFC8685FEA3F
:1015C000807039D40869400744BFC8685FEA40703A
:1015D0003ED40869000744BFC8685FEA007045D47C
:1015E0000869C00644BFC8685FEAC0604AD4086999
:1015F000C0071CBFC8685FEAC07051D10869000607
:1016000044BFC8685FEA006052D40869400644BF1E
:10161000C8685FEA406053D40869800646BFC8685E
:101620005FEA806010BD6FF0200220460A61BDE8CD
:101630001040FFF755BC00BF6FF0020008610120A9
:1016400020778869800743D02046FFF7AFFF45E049
:101650006FF00400086102202077886910F4407F51
:1016600040D02046FFF7A2FF42E000BF6FF0080025
:10167000086104202077C86980073DD02046FFF725
:1016800095FF3FE06FF01000086108202077C869DF
:1016900010F4407F3AD02046FFF788FF3CE000BFBF
:1016A0006FF001000861204600F04CFA2168A5E7C0
:1016B0006FF0800008612046FFF710FC2168A4E766
:1016C0006FF040000861204600F09CFB2168A3E712
:1016D000204600F04DF8204600F0C2F921680020B5
:1016E00020776FE7204600F043F8204600F0B8F975
:1016F0002168002020776CE7204600F039F820466A
:1017000000F0AEF921680020207769E7204600F05C
:101710002FF8204600F0A4F921680020207766E722
:1017200080B586B0014640F60000C4F201000968A9
:1017300000F5105300229942049201D006B080BDFA
:1017400041F21801C4F202010A6842F004020A6080
:10175000096801F00401019101994FF4C0610291FF
:1017600002210391059102A9FEF7EEFE06B080BDAD
:10177000704700002DE9F04390F83C30012B04BF86
:101780000220BDE8F0834FEAB202032A00F2E980AA
:10179000DFE802F0023A78B4036842F600461A6ABB
:1017A000C4F2010622F001021A621D6A1A465C6840
:1017B00052F818CFB3428E68D1F800E025F0020548
:1017C00045EA06050CD1CE68D1E9057824F44074C9
:1017D00025F00C0526F004063C43354344EA080492
:1017E0002CF0730747EA0E075C609F614F68096938
:1017F0005F631D629F6947F008079F619F6927F03B
:1018000004079F61AAE000BF036842F600461A6A17
:10181000C4F2010622F010021A621D6A1A46D3F8B9
:1018200004C052F8184FB3428E68D1F800E025F09A
:10183000200545EA061510D1CE68D1E9058725F0C7
:10184000C0096FF0400505EA06152CF4406647EA2A
:10185000080745EA090546EA870C24F4E64444EA09
:101860000E27C3F804C09F614F6809699F631D621A
:101870009F6947F400679F619F6927F480679F61B4
:101880006BE000BF036842F600461A6AC4F2010624
:1018900022F480721A621D6A1A46D3F804C052F804
:1018A0001CEFB3428E680C6825F4007545EA0625E6
:1018B00011D1CE68D1E9058725F44069360240F29E
:1018C000FF4526EA05052CF4405647EA080745EA95
:1018D000090546EA071C2EF073072743C3F804C026
:1018E000DF614F680969DF631D62DF6947F0080740
:1018F000DF61DF6927F00407DF612FE0036842F64C
:1019000000471A6AC4F2010722F480521A621A468A
:10191000D3F820C05D6852F81C4FD1F800E08E6803
:10192000BB4204D14F6925F4804545EA87152CF464
:10193000005747EA063724F4E64646EA0E265D607D
:10194000DE614E6809691E641F62DF6947F4006743
:10195000DF61DF6927F48067DF61090213681943DB
:101960001160002180F83C100846BDE8F0830000BB
:10197000002804BF0120704710B5044690F83D00D0
:1019800028B9002084F83C00204600F067F80220C7
:1019900084F83D00206840F2FF730268C4F200033F
:1019A00042F6004C9842C4F2010C15DCB0F1804FB5
:1019B0001AD040F20041C4F20001884214D098428B
:1019C00018DCB0F1804F1DD040F20041C4F200019C
:1019D000884217D01AE000BF604505D040F60001EC
:1019E000C4F200018842EAD1A16822F070020A43E1
:1019F0009842E6DD604505D040F60001C4F20001E2
:101A0000884203D1216922F440720A43A36922F07B
:101A10008001D4F804E0E268194360450160C262C5
:101A2000C0F828E002D16169CCF830100121416191
:101A3000002084F8461084F83E1084F83F1084F8A3
:101A4000401084F8411084F8421084F8431084F860
:101A5000441084F8451084F83D1010BD7047000014
:101A60007047000041B1082910D0042914BF00F1CB
:101A7000410200F13F020BE090F83E20012A1CBF1A
:101A800001207047022280F83E2013E000F140025E
:101A90001278012A1CBF012070470222082907D0B2
:101AA000042914BF80F8412080F83F2002E000BFE5
:101AB00080F84020006801F01F010122036A8A407B
:101AC00023EA02010162036A42F64441C4F20101C1
:101AD0001A43A1F14403984202620FD040F2FF7111
:101AE000C4F20001884213DCB0F1804F1CD040F2F8
:101AF0000041C4F20001884216D01CE00A6842F49A
:101B000000420A6040F2FF71C4F200018842EBDD3E
:101B100042F60041C4F20101884205D040F60001BE
:101B2000C4F20001884206D1816801F0070106294C
:101B300004BF00207047016841F0010101600020EE
:101B4000704700002DE9F04F85B040F2F821C2F255
:101B5000000100680968884202D005B0BDE8F08F36
:101B600040F2B0091E20C2F20009C0F2640040F247
:101B70006821C9F80A00B9F80200C2F20001096838
:101B8000A9F80400496A40F2DC52081A00B2504336
:101B900040F23562C6F24C3280FB0202D01100EBFB
:101BA000D270A9F8100000B2C0F11E08D9E9070BE5
:101BB00040F20005D9F814400490A8EB0B00A9F8F6
:101BC0000210C2F2000501F0D7FE2A4601466868FD
:101BD0005369ED68D769029301F04EFF214601F089
:101BE00021FD01F0F3FC82460C4628463946039756
:101BF00001F042FF08EB0B060546304601F0BCFE43
:101C00000146284601F038FF01F0E0FC0023C3F64E
:101C1000E073002201F0EEFA5246234601F0B8F8D4
:101C2000044604980D46A6EB400001F0A5FE0146CF
:101C3000029801F021FF394601F08CFD01F0C6FC4D
:101C400002460B462046294601F0A2F801F06EF844
:101C5000044601F075FE40F2B022B9F80610C2F257
:101C600000021268C9E907B8C9F81440A9F80810B9
:101C7000526A40F2DC57511A0BB27B4340F235678F
:101C8000C6F24C3783FB07370646F81100EBD770D6
:101C9000A9F8120000B2C0F1640AD9E90905D9F81F
:101CA00018400290AAEB0500A9F80620A9F80E102A
:101CB000049501F061FE40F20002C2F2000201460A
:101CC000906817699269019201F0D6FE214601F0F1
:101CD000A9FC01F07BFCDDF80CB0044600915846ED
:101CE000394601F0C9FE0AEB05078046384601F087
:101CF00043FE0146404601F0BFFE01F067FC0023B1
:101D00000022C3F6E07301F075FA009B224601F051
:101D10003FF8044602980D46A7EB400001F02CFE68
:101D20000146019801F0A8FE594601F013FD01F0AB
:101D30004DFC02460B462046294601F029F800F0EA
:101D4000F5FF044601F0FCFD049916F5F97FC9E999
:101D5000091AC9F818406FF4F974B8BF2646B6F5E9
:101D6000F97F40F2F311D8BF314610F5F97F40F208
:101D7000F317A8BF0446B4F5F97F40F22028D8BF76
:101D80002746012E4FF000054FF00002C2F2000876
:101D9000B8BF0125002EC8BF0122D8F8000040F6C8
:101DA0000046D8BF4942C4F20106C1633046202133
:101DB000FEF7D8FC304640212A46FEF7D3FC012C22
:101DC0004FF000054FF00002B8BF0125002CC8BF3E
:101DD0000122D8F80000D8BF7F42876330468021B7
:101DE000FEF7C0FC30464FF480712A46FEF7BAFC7D
:101DF00040F20001C2F2000108780130087005B01D
:101E0000BDE8F08F70470000704700007047000089
:101E1000002804BF0120704710B5044690F83D002B
:101E200028B9002084F83C00204600F061F8242006
:101E300084F83D002068D4E90212C36823F40053FB
:101E4000C360036923F440531A430261D4E90423B5
:101E50001143C268194341F20C639A431143C160B4
:101E60004169A26921F44071114343F60002C4F2B2
:101E700001029042416103D0FEF718FE02E000BF6C
:101E8000FEF728FE6268192148439100B0FBF1F08B
:101E900048F21F51C5F2EB11A0FB01235A094FF67E
:101EA0009C73C0F6FF7302FB0300322303EB0010A8
:101EB000A0FB0101F02303EA5113206803EB021297
:101EC000C1F3431111448160016921F49041016122
:101ED000416921F02A014161C16841F40051C160AA
:101EE00000202021206484F83D1084F83E1010BDAD
:101EF0002DE9F04186B00446006844F60001C4F2C2
:101F00000001002688420596CDE90366029669D055
:101F100044F20041C4F20001884240F0948041F252
:101F20001800C4F20200416840F6000541F4003197
:101F300041604168C4F2010501F400310191019949
:101F4000016802AE41F004010160006840F26C08D3
:101F500000F00400019001980420029002200390F8
:101F60000320059028463146C4F20208FEF7ECFA39
:101F700008200290002728463146CDE90377FEF776
:101F8000E3FA40F29815C2F2000580262846C5E91A
:101F90000087C5E90276C5E90477C5E90677FEF74B
:101FA00035FA002818BFFEF75DF9A5636C6240F2B0
:101FB000DC1508F11400C2F20005102185E8830049
:101FC0002846C5E90367C5E90577EF61FEF71EFA04
:101FD000002818BFFEF746F965636C6206B0BDE8DD
:101FE000F08100BF41F21800C4F20200416802AD66
:101FF00041F480214160416801F4802101910199FF
:10200000016841F0080101600068294600F00800FD
:10201000019001984FF48060029002200390032009
:10202000059040F60000C4F2010000F580642046EF
:10203000FEF78AFA4FF40060CDE9020620462946F1
:102040000496FEF781FA06B0BDE8F08170B582B063
:10205000054690F83E0020280ED113460A46002976
:102060004FF0010418BF002B02D1204602B070BD12
:1020700095F83C00012803D10224204602B070BD2F
:10208000012085F83C00002422202C63AA62AB8545
:102090002C6485F83E002968A86B42F6810C42F654
:1020A000CD0E42F61506C0F6000CC0F6000EC0F6C6
:1020B00000060431C0E90ACEC0E90C64FEF7E2F97B
:1020C000019428680168019141680191019985F89E
:1020D0003C40C16841F48071C160416941F0010137
:1020E0004161416941F040014161204602B070BD4B
:1020F0002DE9F04F89B040F22C12C2F200020068C4
:10210000916A884202D009B0BDE8F08F40F2B00B6E
:10211000C2F2000B02F128000BF170010B22FFF755
:1021200095FF9BF87000FF28EDD19BF87100022805
:10213000E9D19BF87A00AA28E5D19BF872009BF8B8
:1021400073104FF47A779BF874207843642601FB70
:1021500006009BF8753002EB820100EB4100184449
:102160004DF250019BF87630421ACBF82C2003FB3D
:1021700007F29BF877309BF8787003FB062207EB99
:1021800087039BF8797002EB4302D5194DF2A8261C
:10219000691A301ACBF8301001F0EEFB0446CBF888
:1021A0003800701B01F0E8FB40F2000AC2F2000A9E
:1021B000DAE90C160546CBF83C00204601F0CAFAD5
:1021C0000446CBF840002846314601F0C3FA804669
:1021D000CBF8440020464FF07E514FF07E5601F080
:1021E00091FA38B90026CBF680762046314601F0C8
:1021F00090FA10B93446CBF8406040464FF07E511B
:102200004FF07E5601F07EFA38B90026CBF6807684
:102210004046314601F07DFA10B9B046CBF8446033
:10222000DAE908600021089080F00047CCF2400114
:10223000204686F0004501F073FA58BB20464FF067
:10224000404101F066FA38B90021C4F2400120464D
:1022500001F0E8F91FE000BF2046394601F060FABE
:10226000002840F08D802046294601F052FA88B9B6
:102270002846214601F0CCFC82460898314601F000
:10228000C7FC0146504640F2000AC2F2000A01F0C3
:1022900061FA00E000200290CBF848002046394661
:1022A00001F03EFAA0B92046294601F032FA98B969
:1022B0002F46089D2046294601F0B4F9814628465C
:1022C00031463D4601F0A4FC014648460EE000BF01
:1022D0004FF000090DE000BF204600214FF000093B
:1022E00001F017FA28B984F00040314601F032FAC3
:1022F000814620462946CBF84C9001F011FAB8B936
:102300002046002101F005FA20B92046314601F0AF
:1023100089F908E02046314601F0FBF940B9304622
:10232000214601F075FC314601F014FA01E000BFCE
:102330000020089D0890CBF850002046002100277F
:1023400001F0EEF908BB2046314601F0E2F918B978
:102350002046314610E000BF2046294601F0D9F959
:1023600090B92846214601F053FC074628463146DD
:1023700001F04EFC0146384601F0ECF9074604E056
:102380004FF07E5087E700BF002720463146CBF84C
:10239000547001F0C5F9CDE9059748BB20462946A0
:1023A00001F0B7F970B92046314601F031FC04461E
:1023B0002846314601F02CFC0146204601F0CAF9BE
:1023C00017E000BF20464FF0804101F0A9F9002836
:1023D00040F0BE800021C4F24001204601F099F98E
:1023E00030B90020C4F24000214601F011FC00E0A9
:1023F00000200790CBF85800DAF82C00DAF828A073
:102400000021039080F00046CCF2400140468AF063
:10241000004401F085F938BB40464FF0404101F0DF
:1024200078F938B90021C4F24001404601F0FAF8C9
:102430001BE000BF4046314601F072F9002840F031
:102440008B804046214601F064F968B92046414638
:1024500001F0DEFB05460398514601F0D9FB014629
:10246000284601F077F900E00020049004983146F6
:10247000CBF85C00404601F053F988B9404621464C
:1024800001F047F970B9039D4046294601F0CAF8AA
:1024900006462846514601F0BBFB014630460AE09D
:1024A00000260BE040460021002601F032F928B951
:1024B00088F00040514601F04DF90646404621465D
:1024C000CBF8606001F02CF90196B8B940460021C4
:1024D00001F01FF920B94046514601F0A3F808E089
:1024E0004046514601F015F940B95046414601F0C9
:1024F0008FFB514601F02EF9054600E000254046CD
:102500000021CBF864505C464FF0000901F008F957
:1025100048BB40465146264601F0FBF810B94046FC
:10252000514610E00399404601F0F3F8C0B9039F0B
:102530004146384601F06CFB04463846514601F0EE
:1025400067FB0146204601F005F981460AE000BF1D
:102550004FF07E504DE700BF4FF07E5085E700BF43
:102560004FF000093446404651462646C4F868906C
:1025700001F0D6F8A0B90399404601F0CAF898B91D
:10258000AB46049D4046514601F042FB0446039889
:10259000514601F03DFB0146204601F0DBF819E011
:1025A000AB46049D00241AE040464FF0804101F004
:1025B000B7F8AB4680B90021049DC4F24001404603
:1025C00001F0A7F80028EDD10020C4F240004146F8
:1025D00001F01EFB044602E0049D4FF07E5440F2E1
:1025E0002C100599C2F2000041600899DDF808A09E
:1025F00081600699DDF80480C1600799C0F800A0E9
:10260000C0E904154CF6CD41C0E9068BC0E9089439
:10261000CBF6CC6140463746F46601F02DFA2946E8
:1026200001F0F6FA4CF6CD410646C3F64C61484639
:1026300001F022FA314600F0F5FF064620464FF041
:102640007C5101F019FA314600F0ECFF06462846AD
:10265000414600F0E7FF594600F0E4FF4946BB461B
:1026600000F0E0FF214600F0DDFF0146304601F0BA
:1026700071F8059C4CF6CD4180462046CBF6CC61E6
:1026800001F0FAF9514601F0C3FA069F4CF6CD412C
:102690000546C3F6CC61384601F0EEF9294600F054
:1026A000C1FF079E314600F0BDFF0546504621465A
:1026B00000F0B8FF089900F0B5FF394600F0B2FF0E
:1026C000314600F0AFFF0146284601F043F8DBF841
:1026D0003460054640464FF07C5101F0CDF940F2A0
:1026E0000007C2F20007F96901F0C6F9314600F0AF
:1026F00099FF00210446CBF83400002601F017F8BA
:1027000038B920464FF080414FF0804601F008F87C
:1027100010B93446CBF83460D7E90E16204601F0E4
:10272000ABF904462846314601F0A6F90646204694
:1027300000F04CFF044630460D4600F047FF41F6DE
:10274000B8624BF65103CEF68532C3F6BE7300F085
:1027500051FD06460F462046294632463B4600F0CC
:1027600047FE47F2A4024AF2D733C0F63D22C3F631
:10277000A07300F0B5FB40F2000AC4F24E0A00223A
:10278000534600F037FDD84648F26E6B42F2F91915
:10279000CFF21B0BC4F219095A464B4600F0A0FBBE
:1027A00000F0F8FCA8F80A003046394622462B46CD
:1027B00000F0EEFA47F2A4024AF2D733C0F63D2207
:1027C000C3F6A07300F08CFB0022534600F012FD0C
:1027D0005A464B4600F084FB00F0DCFCA8F80C00E5
:1027E00009B0BDE8F08F000070470000FEE7000070
:1027F000FEE70000FEE700007047000070470000A1
:10280000FDF7BCBF7047000040F2F820C2F20000A4
:10281000FEF7CEBE406A01684A6990F83D30212B30
:102820000BD112F0800208D00022C284CA6822F0C4
:10283000C002CA60202280F83D204A6990F83E30EC
:10284000222B17D112F0400214D00022C285CB688F
:1028500023F49073CB604B6923F001034B61036B4E
:10286000012B03D1CB6823F01003CB60202180F82B
:102870003E100263016C41F010010164FFF7C6BA1B
:102880000168406A0968890618D40021C185016879
:10289000CA6822F48072CA604A6922F001024A6161
:1028A0004A6922F040024A61202280F83E20026BF1
:1028B000012A03D1CA6822F01002CA60016B012903
:1028C00018BFFFF715BC818DFFF79EBA406A016BF8
:1028D000012918BFFFF788BF818D4908FFF794BA17
:1028E000FEE7000098B0FDF757FF00240120CDE976
:1028F0000544CDE90344009004904FF4E0104FF4F8
:102900008031022509906846CDE90114CDE90751CF
:10291000FEF7F4F820B1EFF3108072B6FEE700BFC7
:102920000F20CDE90A054FF48060CDE90D040AA817
:1029300002210C94FDF7DAFF20B1EFF3108072B69C
:10294000FEE700BF41F21806C4F20206306840F606
:10295000004440F0200030603068C4F2010400F010
:1029600020000090009830684FF4F07140F00400AF
:1029700030603068002200F0040000900098306859
:102980004FF4F07740F0080030603068002500F028
:102990000800009000982046FDF7E4FE0120CDE9F4
:1029A000010502200390694620460097FDF7CCFD03
:1029B00056F8040C002140F0010046F8040C56F8CB
:1029C000040C002200F00100009000981020FDF798
:1029D00051FF1020FDF73AFF112000210022FDF7E2
:1029E00049FF1120FDF732FF40F2202004F500518D
:1029F000C2F2000040F2F3131795CDE91555CDE969
:102A00001255CDE90655CDE90455CDE90255CDE97C
:102A10000055072280E82600C0E90335C0E90555C6
:102A2000FEF7C4FA20B1EFF3108072B6FEE700BFE4
:102A30004FF48050149040F22020C2F2000014A9FC
:102A4000FEF798FB20B1EFF3108072B6FEE700BFEF
:102A500040F22020C2F20000FEF78AFF20B1EFF31F
:102A6000108072B6FEE700BF40F22020C2F20000E4
:102A700012A9FEF75DFA28B1EFF3108072B600BF1D
:102A8000FEE700BF60200A900020CDE90B00CDE9F1
:102A90000D00CDE90F0040F22020C2F200000AA98B
:102AA0000422FEF767FE28B1EFF3108072B600BF74
:102AB000FEE700BF40F22020C2F200000AA908226F
:102AC000FEF758FE20B1EFF3108072B6FEE700BFAC
:102AD0004FF40050059040F220200025C2F2000083
:102AE00069460495CDE90255CDE900550795FEF7F5
:102AF000F9F928B1EFF3108072B600BFFEE700BF0E
:102B000040F22020C2F20000FEF70AFE40F26820E8
:102B1000C2F200004FF08041C0E900150321CDE969
:102B2000001501214FF6FF72CDE90215CDE906151A
:102B30006946CDE90A55C0E9025205618561CDE9D2
:102B400004550895FEF7E0FB20B1EFF3108072B654
:102B5000FEE700BF40F26825C2F200050AA9284638
:102B6000FEF7E6F920B1EFF3108072B6FEE700BF82
:102B700040F2B0200021A4F58432C2F200004FF6EA
:102B8000FF73C0E900210122CDE90A11C0E9021357
:102B900001618161CDE90021CDE90221CDE9041176
:102BA000CDE9062108916946FEF7AEFB20B1EFF3AF
:102BB000108072B6FEE700BF40F2B02AC2F2000AEF
:102BC0000AA95046FEF7B4F920B1EFF3108072B6AF
:102BD000FEE700BF40F22C19C2F20009A4F54841FB
:102BE000484640F8281F4FF4E13600274FF00C0804
:102BF000C0E90167C0E90377C0E90587C761FFF74E
:102C000007F918B1EFF3108072B6FEE740F24030DA
:102C1000A4F54441C2F2000080E8C200C0E9037795
:102C2000C0E90587C761FFF7F3F818B1EFF310802B
:102C300072B6FEE740F2F8200021A4F58232C2F21B
:102C4000000040F2671340F2E7370391CDE901112C
:102C5000CDE90A11C0E90023C0E9021701618161D1
:102C6000FEF7A4F920B1EFF3108072B6FEE700BFC3
:102C70004FF48050009040F2F820C2F20000694604
:102C8000FEF778FA20B1EFF3108072B6FEE700BFCE
:102C900040F2F820C2F200000AA9FEF749F918B183
:102CA000EFF3108072B6FEE740F22028C2F200086F
:102CB00040460421FEF7D6FE40460821FEF7D2FE2C
:102CC00028460021FEF714FC28460421FEF710FCDC
:102CD00050460021FEF70CFC50460421FEF708FC8C
:102CE00028684FF400414162DAF8000040F2B00574
:102CF000C2F20005416209F1280005F170010B22C2
:102D0000FFF7A4F920464FF4F0710022FDF72AFDE9
:102D100040F2F820C2F20000FEF7F4F92878013002
:102D200028706420FDF7FCFBF8E7000021F000426A
:102D300001F00043A2F16052B2F5801F28BFD2F12A
:102D40007F6C0BD95FEA001C43EAC20242EB507071
:102D500018BF704728BF20F001007047B2F5801FF0
:102D6000BCBF184670474FEA410C1CF5001F02D249
:102D7000084600F048BF70B500F0E6FA0000008990
:102D8000FFF7F6BF4FF00040A0F58000704700004D
:102D900010B591EA030F48BF83F0004300F1308380
:102DA000841A71EB030C05D2121943EB0C03001BC0
:102DB00061EB0C014FEA1154A4EB135CDFF81CE14A
:102DC0001EEA430F18BF9EEA445F00F0748021EAB8
:102DD000045123EA0E0343F48013DCF1200E32D3B6
:102DE00022FA0CFE10EB0E0023FA0CFE41EB0E0152
:102DF000CCF1200E03FA0EFE10EB0E00CCF1200EEB
:102E000051F10001B1F5801F32D201EB045112FAE9
:102E10000EF2BDE8104058BF7047401C38BF5FEA53
:102E2000420218BF7047002814BF20F0010041F192
:102E300000014FEA410313F5001F38BF7047A1F1AD
:102E4000C04100F0CFBA012A43EB0302ACF1200CE1
:102E5000DCF11F0E32BF4FF0000E23FA0CF310EB23
:102E6000030041EB0451B4EB115FD0D0A1EB04514E
:102E700001F58011490801EB04515FEA30000ED3DF
:102E800050F1000038BF12FA0EFE08D1BDE8104024
:102E9000C9E7401C38BF5FEA4202CAD1C3E7BDE8B8
:102EA00010404FEA410313F5001F38BF7047A1F1EE
:102EB000C04100F097BA9EEA445F08D011EA5E0F65
:102EC000BDE8104004BF01F0004100207047BDE89C
:102ED000104070B500F038FA64FBBE3E0000E0FF21
:102EE0002DE9C04130B4DFF8A4C23CEA111418BF88
:102EF0003CEA131400F0ED801CEA111481EA03058A
:102F000044EAD57418BF1CEA131500F0C880A4EB7E
:102F1000050404F17F7404F500344FF0004545EAE0
:102F2000C12145EAC32341EA505143EA52534FEAD3
:102F3000C0204FEAC222994208BF904200F09D8013
:102F40004FEA13650FF24416765D4FEA134506FB10
:102F500005F7C7F1807706FB07F74FEAD737A7FBDE
:102F600003687642A7FB06CEC8F5803838BFA8F1C3
:102F7000010807FB08E6A6FB028C4FF0000EE6FBFB
:102F800003CEDCF1000CCEF1004E38BFAEF1010EE5
:102F9000A6FB0C584FF00007E6FB0E87A1FB08C606
:102FA000A0FB07CE16EB0E064FF0000545F100051D
:102FB000E1FB076515F1E04E7EBFA4F580345FEAC2
:102FC00046066D4116F1800745F100054FEA1727C7
:102FD00047EA05674FEA15254FEA0666A6F1DE4681
:102FE000B6F1805F20D9384605EBC47124F0010C9E
:102FF00001EB0C11BCF1FE6F02D8F0BCBDE8008102
:1030000024425CBF01F5801E9EEAC47F02D4F0BC5E
:10301000BDE80081244200F13980A1F1C041F0BC3B
:10302000BDE8004100F0DEB94FEAD02040EA41504F
:103030004FEAD1214FEAD22242EA43524FEAD32348
:10304000A7FB028607FB036605FB02661EEA0E0F5E
:1030500058BFA6EB0056B6EB00564FEA520E4EEAAA
:10306000C37E18EB0E0E56EB530EBCD518EB0208C0
:103070005E417F1C55F10005B5E74FF480154FF018
:1030800000074FF000064FF00008ACE701F1C04127
:1030900001F000414FF00000F0BCBDE800810CEAF7
:1030A000131511EA0C1F00D00CE013EA0C1F00F0FE
:1030B00026804FF0000081EA030101F00041F0BCDE
:1030C000BDE80081F0BCBDE8004181EA030100F0E9
:1030D00089B9F0BCBDE8004170B500F035F900BF1A
:1030E000097EFC3E00F007B84FF0000081EA0301C2
:1030F00001F00041704781EA030100F073B9F0BCB0
:10310000BDE8004122494FF000007047FFFDFBF988
:10311000F7F5F4F2F0EEEDEBE9E8E6E4E3E1E0DE0A
:10312000DDDBDAD8D7D5D4D3D1D0CFCDCCCBCAC87C
:10313000C7C6C5C4C2C1C0BFBEBDBCBBBAB9B8B7A3
:10314000B6B5B4B3B2B1B0AFAEADACABAAA9A8A896
:10315000A7A6A5A4A3A3A2A1A09F9F9E9D9C9C9B64
:103160009A9999989797969595949393929191900F
:103170008F8F8E8E8D8C8C8B8B8A898988888787A0
:103180008685858484838382828181800000FF0715
:103190000000F87F4FEA41034FEA5353A3F58063E1
:1031A000D3F11E03C8BFD3F1210C0CDD4FF0004258
:1031B00042EAC12242EA505232FA03FC8CEAE17C34
:1031C000ACEBE1707047102BC4BF0020704703F5D3
:1031D000787CBCF1FF3F04D06FF0004282EA21000E
:1031E000704770B500F0B0F8499224800020704715
:1031F000F2E7000070B5DFF848C11CEA111E1EBFDF
:103200001CEA13159EEA0C0F95EA0C0F00F06F8074
:1032100081EA03044EEAD47EAE4421EA4C1123EA4B
:103220004C1341F4801143F48013AEF17F7EA1FB77
:10323000024CA0FB0365361955EB0C05A1FB034CB2
:103240004CF10003A0FB021C16EB0C06654153F188
:103250000003094218BF46F0010613F4007F0BD1AA
:103260004FEA03314FEA053041EA155140EA165062
:1032700034036FF003020AE04FEAC3214FEAC5208E
:1032800041EA555140EA5650F4026FF0020202EB57
:103290002E4201EB025585EACE710AD05FEA440C5A
:1032A00018BF24F0004450F1000041F1000120EA71
:1032B000D47040F2FE7C624500D270BDA84214BFBB
:1032C0004FF080444FF04044002E08BF0024BEF170
:1032D000806FA8BFA1F1C041BDE8704080F282803C
:1032E00001F1C04101F000414FF0000070470CEACD
:1032F00013159EEA0C0F18BF95EA0C0F06D081EA51
:10330000030E4FF000000EF0004170BD00F01CF8FD
:103310008900013E00F007B800F009B84FEA430CFD
:103320005FEA5C5C08D081EA030100F05BB84FEA19
:10333000410C5FEA5C5CF6D102494FF00000704737
:103340000000FF070000F87F0EF1020E2EF0030EC2
:103350005EF8046B364205D4012A43EB030515F5EC
:10336000001F12D8012841EB010C1CF5001F0CD8DE
:103370000ED14FEAD17C0CEB4C0C0CF1020C15F584
:10338000001F08BF4CEBD37C04E04FF0080C01E0B9
:103390004FEAD37C0CEB4C0526FA05F606F007063F
:1033A000B6F1040C06D20EEB860CBDE870404CF072
:1033B000010C6047DFE80CF0090B02024FF00041FE
:1033C000A1F500214FF0000070BD194610460128FC
:1033D00051EB010418BFD4F5001484BF002001F0A4
:1033E000004170BD0808A0F500114FEA3101704797
:1033F00010B591EA030F48BF83F000433FF5D0AC0E
:10340000841A71EB030C07D28CF0004C121943EBB9
:103410000C03001B61EB0C014FEA1154A4EB135C8D
:10342000DFF8A4E11EEA430F18BF9EEA445F00F0F4
:10343000B48021EA045123EA6E035242C3EB6E03C7
:1034400038BF5B1EDCF1200E25D322FA0CFE10EBF8
:103450000E0043FA0CFE41EB0E01CCF1200E03FAF4
:103460000EFE10EB0E00CCF1200E51F1000129D41C
:1034700001EB045112FA0EF2BDE8104058BF70473C
:10348000401C1CBFB2F1004F704700280CBF491C04
:1034900020F00100704712EB020E43EB030218BF4D
:1034A0004FF0010E4EEA4202ACF1200CDCF11E0E90
:1034B00056D943FA0CFE10EB0E00CCF11E0E51F162
:1034C000FF31D5D50EF1010E12FA0EFE404141EB4F
:1034D000010101EB445C5FEA5C5C10D901EB045133
:1034E00010EBDE7038BFBEF1004FBDE8104018BFD2
:1034F000704700280CBF491C20F00100704734D2EF
:103500004FEAD42C24F4006411F500111BD0B1FA59
:1035100081F20B3AA41AA41ED2F12003914030FA92
:1035200003F31943904001EBCC7101EB0451002CE3
:10353000BDE81040A8BF704701F1C04101F0004153
:103540004FF000007047B0FA80F310FA03F102D197
:10355000BDE810407047E41A173C4805C90AE2E785
:1035600001EB0451BDE81040704749104FEA3000AC
:1035700001EB0451BDE8104002E04FF0000170473C
:103580004A0008BF0042F8D0B2F5001F28BF7047BC
:1035900001F000414FF0000070479EEA445F07D001
:1035A00011EA5E0FBDE8104004BF00210020704703
:1035B000BDE8104070B5FFF7C7FE00BF40DFF63E24
:1035C000104683F0004170470000E0FF43004FEADF
:1035D000D30C4FEA3C0C43401FBF40070CF1605135
:1035E00013F0FE4F70471CF0006F03D10CF0004148
:1035F000002070470CF0004343EA507040EACC00D2
:1036000010B500F0BAFA00BF000000924FEA0001C6
:10361000FFF7E8BE4FF00041A1F500214FF0000098
:103620007047000090EA010F48BF81F0004100F1AF
:10363000F682421A3CBF801A89184FEAD052A2EB98
:10364000D1534FF07F4C1CEA410F18BF9CEA026F28
:1036500000F03B804FF0004C4CEA00204CEA012186
:1036600021FA03FC10EB0C0C1ED202F1FF325FEAD0
:103670001C2040EBC25038BF70471CF07F0F4FEA50
:10368000400C18BFBCF17F4F38BF7047C3F1200317
:10369000994008BF20F00100BCF17F4F38BF704750
:1036A000A0F1C04000F0AFBA4FEA3C00000A40EB86
:1036B000C25028BF1CF0FF0F4FEA400CE6D018BFE5
:1036C000BCF17F4F38BF7047EAE79CEA026F05D034
:1036D00010EA5C0F08BF00F00040704710B500F022
:1036E0004CFA00BF64FBBE3E10B500F0F5F80CBF0D
:1036F0000120002010BD10B500F0EEF814BF01202D
:10370000002010BD10B500F04FF98CBF0120002043
:1037100010BD10B500F048F92CBF0120002010BDED
:1037200010B500F075F994BF0120002010BD10B550
:1037300000F06EF934BF0120002010BD401058BFCA
:10374000C0F14040491058BFC1F140418142EFF300
:10375000008070474FF47F0C1CEAD0121EBF1CEA99
:10376000D11392EA0C0F93EA0C0F00F0858090EAD7
:10377000010F48BF42F4807240F4000C41F4000095
:103780002CF07F4120F07F4000B5A2EB0302814284
:103790000FF2081CACEB504E9EF800E0C0F10000A8
:1037A0004FEA4E0E00FB0EFC38BF49004FEA2C1CBE
:1037B0000CFB0EF34FEACE1E0EEB635E4FEA112CAC
:1037C0000EFB0CFC4FEAC1214FEA1C5300FB031116
:1037D00002F5FA024FEA112C0EFB0CFC4FEA013104
:1037E0004FEADC4C00FB0C1142EB2242C14228BFE5
:1037F00009184CEB03335DF804EB10EB410143EB8C
:10380000C250B2F57C0F38BF704729D512F0F00FC7
:103810001CBF00F1C04000F000407047008182836F
:103820008485868788898B8C8D8E8F9192939596CF
:1038300097999A9C9D9FA0A2A3A5A7A8AAACAEB059
:10384000B2B3B5B7B9BCBEC0C2C5C7C9CCCED1D45E
:10385000D7D9DCDFE2E6E9ECF0F3F7FAFE0000008E
:103860004FEA400C0CF1807CBCF17E4F28BF7047C2
:10387000B0F1C04000F0C7B90CEAD11390EA010FD3
:1038800048BF42F48072624538BF634507D213F4E3
:103890007F0F16D080EA010000F00040704710B59D
:1038A00000F06BF9097EFC3E00F005B880EA0100EB
:1038B00000F00040704780EA010000F0004000F096
:1038C000A2B912F47F0F04BF0248704780EA0100DA
:1038D00000F099B90000C07F50EA010C00F113809C
:1038E0001CF5000F58BFBCF5000F01D4884270478B
:1038F00007D710F5000F58BF11F5000F15D48842F7
:103900007047894270471CF5000F04D5BCF5000FC5
:10391000F7D5814270474FF0807C1CEB400F38BFD9
:103920001CEB410F01D28142704710B500F025F920
:10393000922449004FF000504FF08051FFF7FEBE37
:1039400041000B0ED3F19E0208D950F400034FEA58
:10395000032323FA02F048BF4042704710B500F03D
:103960000CF900BF49922480002070476FF000429C
:1039700082EA20007047000010F0004148BF40423A
:10398000B0FA80F310FA03F2C3F19D030BD051EAB1
:10399000C35101EB1220530638BF704700F10100FC
:1039A00008BF20F00100704750EA010C00F11380BD
:1039B0001CF5000F58BFBCF5000F01D488427047BA
:1039C00007D710F5000F58BF11F5000F15D4884226
:1039D0007047894270471CF5000F04D5BCF5000FF5
:1039E000F7D5814270474FF0807C1CEB400F38BF09
:1039F0001CEB410F01D28142704710B500F0BDF8B9
:103A0000922449004FF080504FF00051FFF796BECE
:103A100050EA010C00F113801CF5000F58BFBCF5F3
:103A2000000F01D48842704707D710F5000F58BF28
:103A300011F5000F15D488427047894270471CF574
:103A4000000F04D5BCF5000FF7D5814270474FF049
:103A5000807C1CEB400F38BF1CEB410F01D2814230
:103A6000704710B500F089F8922449004FF00050DB
:103A70004FF08051FFF762BE4FF47F0C1CEAD0126A
:103A80001EBF1CEAD11392EA0C0F93EA0C0F00F050
:103A9000478090EA010F48BF42F480724FF0004C1B
:103AA0004CEA00204CEA012102EB0302A0FB0113C7
:103AB000A2F50002002918BF43F001035B0028BFF4
:103AC0004FEA330342EB22425FEA132C4CEBC25025
:103AD0002EBFBCEB436FB2F57C0F70474FEA036C0F
:103AE000BCF1004F08BF20F00100B2F57C0F38BFD9
:103AF00070470BD582F0FF0212F5803FC8BF7047B8
:103B000000F1C040D8BF00F00040704700F5000C45
:103B10005FEA4C0C48BF7047B0F1C04000F073B88A
:103B20000CEAD11390EA010F48BF42F4807262455B
:103B300038BF634504D280EA010000F000407047BE
:103B400010B500F01AF800BF8900013E00F007B878
:103B500000F009B85FEA410C5FEA1C6C08D080EA0B
:103B6000010000F050B85FEA400C5FEA1C6CF6D12F
:103B70004FF00040A0F5800070470EF1020E2EF0CD
:103B8000030E5EF8044B244204D44FEA4102B2F122
:103B90007F4F11D84FEA4003B3F17F4F0CD80ED1BD
:103BA0004FEAD07C0CEB4C0C0CF1020CB2F17F4FC5
:103BB00008BF4CEBD17C04E04FF0080C01E04FEA69
:103BC000D17C0CEB4C0324FA03F404F00704B4F1A9
:103BD000040C06D20EEB840CBDE810404CF0010C36
:103BE0006047DFE80CF0070802024FF00040A0F544
:103BF000800010BD0846420018BFD2F1807288BF15
:103C000000F0004010BDFF2141EAD050C0057047D0
:103C100090EA010F48BF81F000413FF50AAD421A1A
:103C200004D882F00042A0EB020011444FEAD052C7
:103C3000A2EBD1534FF07F4C1CEA410F18BF9CEA16
:103C4000026F4AD04FF0004C4CEA00204CEA0121B0
:103C500021FA03FCB0EB0C0C0FD412F0FE0F36D09F
:103C60005FEA4C001DD5001240EBC25038BF7047D0
:103C70001CF03F0F18BF70470BE05FEA1C20A2F159
:103C8000010240EBC25038BF70471CF07F0F18BFD5
:103C90007047C3F12003994014BF401E20F001007B
:103CA00070474FEA1223800808BF7047B0FA80FCC3
:103CB000A2EB0C02CCF1280C60FA0CF093EA122F64
:103CC00004BF00EBC25070474FEAC3707047130A3D
:103CD0005FEADC1008BF7047F6E79CEA026F04D089
:103CE00010EA5C0F08BF0020704710B5FFF745FFD2
:103CF00040DFF63E81F00040704701020000000006
:103D0000000000000102030406070809000000008B
:103D10000102030402030405060708090A0B0C0D3F
:103D20000E0F1010483D0008000000205000000059
:103D300028010008983D00085000002038090000C4
:103D400044010008000000000A0000000000C03F1D
:103D50003333B33FCDCCCC3DCDCCCC3D0AD7233C87
:103D60000AD7233C0AD7233C9A99993ECDCC4C3FA5
:103D70009A99193F3333733F0000164400001644EC
:103D800000004843CDCCCC3D0100000010000000F5
:083D90000024F4000000000013
:04000005080000ED02
:00000001FF
